:020000040800F2
:1000000088080020CD010008C3050008BB050008D2
:10001000BF0500089F040008B70E0008000000009C
:10002000000000000000000000000000C9070008F8
:10003000A30400080000000071060008B5080008CD
:10004000E3010008E3010008E3010008E301000800
:10005000E3010008E3010008E3010008E3010008F0
:10006000E3010008E3010008E3010008E3010008E0
:10007000E3010008E3010008E3010008E3010008D0
:10008000E3010008E3010008E3010008E3010008C0
:10009000E3010008E3010008E3010008E3010008B0
:1000A000E3010008E3010008E3010008E3010008A0
:1000B00019090008E3010008E3010008E301000852
:1000C000E3010008E3010008E3010008E301000880
:1000D000E3010008150C0008E3010008E301000833
:1000E000E3010008E3010008E3010008E301000860
:1000F000E3010008E3010008E3010008E301000850
:10010000E3010008E3010008E3010008E30100083F
:10011000E3010008E3010008E3010008E30100082F
:10012000E3010008E3010008E3010008E30100081F
:1001300000F002F800F03AF80AA090E8000C8244BF
:100140008344AAF10107DA4501D100F02FF8AFF29C
:10015000090EBAE80F0013F0010F18BFFB1A43F0A5
:1001600001031847D41F0000F41F0000103A24BFF9
:1001700078C878C1FAD8520724BF30C830C144BF0C
:1001800004680C607047000000230024002500264E
:10019000103A28BF78C1FBD8520728BF30C148BFEA
:1001A0000B6070471FB51FBD10B510BD00F00EF9F4
:1001B0001146FFF7F7FF01F0F7FB00F02CF903B44D
:1001C000FFF7F2FF03BC00F0F3F800000848004717
:1001D000FEE7FEE7FEE7FEE7FEE7FEE7FEE7FEE7F7
:1001E000FEE7FEE703480449044A054B7047000058
:1001F00031010008880200208808002088040020BF
:10020000880400200EB5054614460E4613A000F0E3
:100210008CF8284600F089F816A000F086F83046E1
:1002200000F083F815A000F080F800218DF80B1085
:100230000A210DF10A008DF80A1008E094FBF1F292
:1002400001FB124294FBF1F4303200F8012D002C36
:10025000F4DC00F06AF800F05DF800002A2A2A2099
:10026000617373657274696F6E206661696C656431
:100270003A2000002C2066696C6520002C206C69F7
:100280006E652000032A40F2308010F0030C00F06D
:10029000158011F8013BBCF1020F624498BF11F8C0
:1002A00001CB00F8013B38BF11F8013BA2F1040279
:1002B00098BF00F801CB38BF00F8013B11F00303F1
:1002C00000F03D80083AC0F0088051F8043B083A3D
:1002D00051F804CBA0E80810F5E7121D5CBF51F8F7
:1002E000043B40F8043BAFF30080D20724BF11F871
:1002F000013B11F801CB48BF11F8012B24BF00F8D6
:10030000013B00F801CB48BF00F8012B7047704754
:100310007047704710B5002000F050F8FFF744FF19
:10032000BDE81040012000F043B810B5044602E0DB
:10033000641C00F036F820780028F9D110BD10B503
:10034000203AC0F00B80B1E81850203AA0E81850CD
:10035000B1E81850A0E81850BFF4F5AF5FEA027C8E
:1003600024BFB1E81850A0E8185044BF18C918C0FD
:10037000BDE810405FEA827C24BF51F8043B40F89E
:10038000043B08BF7047D20728BF31F8023B48BF83
:1003900011F8012B28BF20F8023B48BF00F8012BC1
:1003A000704708B569468DF800000320ABBE08BD54
:1003B00001491820ABBEFEE72600020010B500F090
:1003C00039F8BDE8104000F02FB87047754600F0CE
:1003D00049F8AE4605006946534620F007008546B9
:1003E00018B020B5FFF7FEFEBDE820404FF0000634
:1003F0004FF000074FF000084FF0000B21F007010D
:10040000AC46ACE8C009ACE8C009ACE8C009ACE84F
:10041000C0098D46704710B50446AFF300802046F2
:10042000BDE81040FFF7CBBE002801D0FFF7C0BFEA
:100430007047000010B5002102A000F017F801205D
:1004400010BD0000534947414252543A2041626E68
:100450006F726D616C207465726D696E6174696F25
:100460006E000000004870472402002070B5054669
:100470000C460A2000E06D1CFFF793FF35B1287889
:100480000028F8D102E0641CFFF78BFF14B120783C
:100490000028F8D1BDE870400A20FFF782BF00BFF6
:1004A000FEE770472DE9F0410246002500260020B6
:1004B00000230024002791F803C00CF00F0591F8E9
:1004C00003C00CF0100CBCF1000F03D091F802C077
:1004D0004CEA050591F800C0BCF1000F31D014685A
:1004E00000202BE04FF0010C0CFA00F3B1F800C033
:1004F0000CEA03069E4220D183004FF00F0C0CFA49
:1005000003F7BC4305FA03FC4CEA040491F803C06A
:10051000BCF1280F06D14FF0010C0CFA00FCC2F818
:1005200014C00AE091F803C0BCF1480F05D14FF0A8
:10053000010C0CFA00FCC2F810C0401C0828D1D3F2
:100540001460B1F800C0BCF1FF0F34DD5468002026
:100550002EE000F1080C4FF0010808FA0CF3B1F896
:1005600000C00CEA03069E4221D183004FF00F0C1D
:100570000CFA03F7BC4305FA03FC4CEA040491F8B7
:1005800003C0BCF1280F05D100F1080C08FA0CF8E3
:10059000C2F8148091F803C0BCF1480F07D100F1F4
:1005A000080C4FF0010808FA0CF8C2F81080401C43
:1005B0000828CED35460BDE8F08100BFFEE700BF3D
:1005C000FEE7704708B54FF4A06000F047F825201B
:1005D0008DF8000000208DF801008DF80200012048
:1005E0008DF80300684600F001F808BD70B50021E1
:1005F00000230F22C47804B3154C246804F4E0648B
:10060000C4F5E064210AC1F10403CA40447804FA45
:1006100003F184781440214309010E4C0678A1555A
:10062000047804F01F050124AC4005786D11AD007D
:1006300005F1E025C5F8004109E0047804F01F0544
:100640000124AC40044D0678761145F8264070BD73
:100650000CED00E000E400E080E100E0024901432D
:10066000024A1160704700000000FA050CED00E03E
:100670007047000029B1064AD2690243044BDA618F
:1006800004E0034AD2698243014BDA6170470000FB
:100690000010024029B1064A12690243044B1A6154
:1006A00004E0034A12698243014B1A61704700005B
:1006B0000010024029B1064A92690243044B9A6134
:1006C00004E0034A92698243014B9A61704700003B
:1006D0000010024029B1064AD2680243044BDA6096
:1006E00004E0034AD2688243014BDA60704700009D
:1006F0000010024030B500210022002400232D4DBF
:100700006D6805F00C0121B1042905D0082923D119
:1007100005E0294D056022E0274D05601FE0254DCD
:100720006D6805F47012234D6D6805F48034022560
:1007300005EB92421CB9214D554305600BE01D4D60
:100740006D6805F400351DB11C4D5543056002E090
:10075000194D5543056002E0174D056000BF00BF0D
:10076000144D6D6805F0F0010909154D6B5C0568C5
:10077000DD4045600F4D6D6805F4E061090A104DDC
:100780006B5C4568DD4085600A4D6D6805F460511D
:10079000C90A0B4D6B5C4568DD40C560054D6D6851
:1007A00005F44041890B074D6B5CC568B5FBF3F55B
:1007B000056130BD0010024000127A0000093D00C2
:1007C0000000002010000020704710B500F002F873
:1007D00010BD00000CB50020019000903348006867
:1007E00040F480303149086000BF3048006800F4B0
:1007F000003000900198401C0190009818B90198B1
:10080000B0F5A06FF1D12948006800F4003010B1B4
:100810000120009001E0002000900098012843D1C1
:100820002348006840F0100021490860084600682D
:1008300020F0030008600846006840F002000860ED
:100840001A484068194948600846406848600846A8
:10085000406840F4806048600846406820F47C109E
:1008600048600846406840F4E81048600846006860
:1008700040F08070086000BF0C48006800F0007015
:100880000028F9D00948406820F003000749486073
:100890000846406840F00200486000BF03484068D6
:1008A00000F00C000828F9D10CBD00000010024037
:1008B000002002407047000010B51348006840F067
:1008C00001001149086008464068104908400E4977
:1008D0004860084600680E4908400B490860084611
:1008E000006820F4802008600846406820F4FE007C
:1008F00048604FF41F008860FFF767FF4FF000600B
:100900000449086010BD0000001002400000FFF81C
:10091000FFFFF6FE08ED00E010B50121880700F0AA
:100920000BF928B101F060F80121880700F001F807
:1009300010BDCA430282704721B1028842F0010211
:10094000028004E002884FF6FE731A40028070476E
:1009500010B504466848844208D10121C014FFF74D
:10096000B9FE0021E014FFF7B5FEC4E0B4F1804FFA
:1009700008D101210846FFF78DFE00210120FFF775
:1009800089FEB8E05D48844208D101210220FFF7CA
:1009900081FE00210220FFF77DFEACE05848844232
:1009A00008D101210420FFF775FE00210420FFF784
:1009B00071FEA0E05348844208D101210820FFF7CE
:1009C00069FE00210820FFF765FE94E04E4884424E
:1009D00008D101211020FFF75DFE00211020FFF754
:1009E00059FE88E04948844208D101212020FFF7C0
:1009F00051FE00212020FFF74DFE7CE04448844258
:100A000008D101214014FFF765FE00216014FFF7B3
:100A100061FE70E03F48844209D10121C804FFF71C
:100A200059FE00214FF40020FFF754FE63E03A48DE
:100A3000844209D101210805FFF74CFE00214FF443
:100A40008010FFF747FE56E03448844209D1012167
:100A50004805FFF73FFE00214FF40010FFF73AFE74
:100A600049E02F48844208D101214020FFF712FEBF
:100A700000214020FFF70EFE3DE02A48844208D1C5
:100A800001218020FFF706FE00218020FFF702FEF3
:100A900031E02548844208D101218015FFF7FAFD95
:100AA0000021A015FFF7F6FD25E02048844209D17A
:100AB00001210804FFF70EFE00214FF48030FFF7FC
:100AC00009FE18E01A48844209D101214804FFF7C1
:100AD00001FE00214FF40030FFF7FCFD0BE015484C
:100AE000844208D101218804FFF7F4FD00214FF46E
:100AF0008020FFF7EFFD10BD002C014000040040F6
:100B000000080040000C00400010004000140040AD
:100B100000340140004C01400050014000540140AD
:100B200000180040001C0040002000400040014030
:100B3000004401400048014030B502460020002337
:100B40000024158A05EA0103958905EA010413B119
:100B50000CB1012000E0002030BD1AB183890B43A5
:100B6000838102E083898B4383817047818470474E
:100B7000002202881D4B98420ED01D4B98420BD08C
:100B8000B0F1804F08D01B4B984205D01A4B9842C9
:100B900002D01A4B984204D14FF68F731A404B88FB
:100BA0001A43174B984207D0164B984204D04FF681
:100BB000FF431A40CB881A4302808B8883850B88B9
:100BC00003850A4B98420BD0094B984208D00E4B34
:100BD000984205D00D4B984202D00D4B984201D15E
:100BE0000B7A03860123838270470000002C0140AA
:100BF000003401400004004000080040000C0040A8
:100C0000001000400014004000400140004401403A
:100C10000048014010B540F22551144800F086F814
:100C2000012806D100F0E8FE40F225510F4800F0FF
:100C30001FF84FF458710D4800F078F8012806D1DC
:100C40004FF45871094800F013F800F0D5FE40F257
:100C50002661064800F06AF8012806D100F0D4FEAB
:100C600040F22661014800F003F810BD0038014051
:100C700010B50022002340F66A14A14200D100BF43
:100C80000A1201249440A3B2DC43048010BD21B1B8
:100C9000828942F40052828104E082894DF6FF731A
:100CA0001A4082817047000010B586B004460121C9
:100CB0000420FFF7FFFC01218803FFF7FBFC4FF442
:100CC0000070ADF8140018208DF8170003208DF87F
:100CD000160005A91348FFF7E5FB4FF48060ADF857
:100CE000140004208DF8170005A90E48FFF7DAFB61
:100CF00001940020ADF80800ADF80A00ADF80C0032
:100D0000ADF810000C20ADF80E0001A9064800F067
:100D10005DF8FFF757FC01210348FFF7B8FF06B065
:100D200010BD0000000801400038014070B50246C7
:100D3000002400230025002040F66A16B14200D1AD
:100D400000BFC1F3421501F01F03012606FA03F3A9
:100D5000012D02D19689334006E0022D02D1168A78
:100D6000334001E0968A33400C12012606FA04F45F
:100D70001688344013B10CB1012000E0002070BD92
:100D8000F0B50346002400260025002040F66A172F
:100D9000B94200D100BF1846C1F3421401F01F064A
:100DA000012707FA06F5012C01D10C3004E0022CD2
:100DB00001D1103000E014301AB107682F430760EA
:100DC00002E00768AF430760F0BD00002DE9F0477F
:100DD00086B005460E460024A24600BFA146002765
:100DE000B08900B100BF2F462C8A4CF6FF7004403A
:100DF000F08804432C82AC894EF6F3100440B0888E
:100E000031890843718908430443AC81AC8A4FF6A9
:100E1000FF400440B0890443AC8201A8FFF76AFC9C
:100E20001F48874202D1DDF810A001E0DDF80CA0D8
:100E3000A88900F4004040B10AEBCA0000EB0A1098
:100E400031684900B0FBF1F807E00AEBCA0000EB9B
:100E50000A1031688900B0FBF1F86420B8FBF0F0AB
:100E600004012009642101FB1089A88900F40040D5
:100E700040B1322000EBC900B0FBF1F000F00700F8
:100E8000044308E0322000EB09106421B0FBF1F0CC
:100E900000F00F0004432C8106B0BDE8F08700008D
:100EA0000038014001468888C0F308007047C1F34C
:100EB00008028280704700BFFEE7000010B50024E2
:100EC00006480078012806D10548006880470020C0
:100ED0000249087000E00624204610BD4E000020A4
:100EE000540000202DE9F05F06460D464FF0000B40
:100EF0002888052848D170784FEA0029B07840EA60
:100F0000090909F101001FFA80F9F078040230792B
:100F10000443012C35DBB4F5FA6F32DA3746002092
:100F20002880012007F8010B2888401C288004F045
:100F3000070040B12046E11704EB5171C910491C6C
:100F400001F0FF0805E02046E11704EB5171C1F301
:100F5000C70807F8018B2888401C288000232246F8
:100F60004946384600F042FC8246BAF1000F04D0F0
:100F7000504600F028FD834608E028884044288039
:100F800004E04FF0030B01E04FF0030B5846BDE8BF
:100F9000F09F2DE9F05F06460D464FF0000B2888C4
:100FA000052847D170784FEA0029B07840EA09094E
:100FB00009F101001FFA80F9F07804023079044346
:100FC000012C34DBB4F5FA6F31DA37460020288083
:100FD000022007F8010B2888401C288004F0070035
:100FE00040B12046E11704EB5171C910491C01F0D2
:100FF000FF0805E02046E11704EB5171C1F3C70873
:1010000007F8018B2888401C28802246494638462C
:1010100000F038FC8246BAF1000F04D0504600F0D0
:10102000D2FC834608E028884044288004E04FF042
:10103000030B01E04FF0030B5846BDE8F09F2DE98C
:10104000F04705460C464FF0000A2088052837D1A6
:1010500068784FEA0028A87840EA080808F10100FB
:101060001FFA80F8E87806022E79012E25DB7D2E06
:1010700023DC2F4600202080032007F8010B208866
:10108000401C20807006000E07F8010B2088401CD1
:101090002080002332464146384600F023FC81463A
:1010A000B9F1000F04D0484600F08DFC824609E0FB
:1010B000208800EB4600208004E04FF0030A01E0A6
:1010C0004FF0030A5046BDE8F0872DE9F04705468A
:1010D0000C464FF0000A2088052837D168784FEA7F
:1010E0000028A87840EA080808F101001FFA80F8F3
:1010F000E878060228790643012E24DB7D2E22DAC9
:101100002F4600202080042007F8010B2088401C77
:1011100020807006000E07F8010B2088401C2080FC
:1011200032464146384600F01BFC8146B9F1000FBB
:1011300004D0484600F047FC824609E0208800EBD6
:101140004600208004E04FF0030A01E04FF0030A5C
:101150005046BDE8F0872DE9FC5F04460D460020AF
:10116000009028880A285DDB60784FEA002AA07882
:1011700040EA0A0A0AF101001FFA80FAE078060242
:101180002079064360794FEA002BA07940EA0B0BE7
:101190000BF101001FFA80FBE0790702207A074378
:1011A000607A0190012E3BDB7D2E39DC012F37DB8D
:1011B000792F35DC79000198814231D101233A46FB
:1011C000594604F10A0000F08DFB8146B9F1000F89
:1011D0001ED1A04600202880172008F8010B28887F
:1011E000401C28807006000E08F8010B2888401C5F
:1011F0002880002332465146404600F073FB81466A
:10120000B9F1000F04D12888022101FB06002880D3
:10121000B9F1000F06D0484600F0D5FB009001E080
:10122000032000900098BDE8FC9F000070B50546C3
:101230000C46064802880649681CFFF723F8034855
:101240000088401C2080002070BD00003E0000206F
:10125000040100202DE9F84304460F464FF0000832
:101260003888052829D160780502A0780543681CD4
:1012700085B22079F0B9E078FF2801D0E078C8B9CC
:1012800000208DF80100E078FF2803D101208DF8BF
:10129000000002E000208DF8000001231A462946D4
:1012A000684600F0A3FA06464EB1304600F08BFBCC
:1012B000804604E04FF0030801E04FF00308404689
:1012C000BDE8F8832DE9F04104460F464FF00008D1
:1012D0003888052812D160780502A0780543681C7B
:1012E00085B201231A462946E01C00F0FBFA0646A7
:1012F00036B1304600F067FB804601E04FF003084E
:101300004046BDE8F0812DE9F05F05460E464FF0FE
:10131000000B3088052839DD68780702A878074374
:10132000781C87B2E87804022879044395F805A070
:1013300004F0070040B12046E11704EB5171C910D9
:10134000491C01F0FF0805E02046E11704EB51714C
:10135000C1F3C708012C16DBB4F5F66F13DCD045DA
:1013600011D1012322463946A81D00F03FFA8146DB
:10137000B9F1000F04D0484600F025FB834607E092
:101380000520308004E04FF0030B01E04FF0030B29
:101390005846BDE8F09F2DE9F04704460E464FF051
:1013A000000A3088062828DB60780702A078074307
:1013B000781C87B2E07805022079054394F80590FF
:1013C000012D17DB782D15DC6806000E484511D17C
:1013D00001232A463946A01D00F084FA8046B8F160
:1013E000000F04D0404600F0EEFA824607E00520E8
:1013F000308004E04FF0030A01E04FF0030A50464A
:10140000BDE8F0872DE9F04705460C4616461F4615
:10141000DDF820904FF000081CB1012C01DBF72C07
:1014200002DD4FF0020835E01C48047005BB1C4883
:101430001C4908601C481D4908601D481D4908607A
:101440001D481E49086000201D4908601D481E49AE
:1014500008601E481E4908601E481F4908604B4628
:101460003A4631460D48007800F0D8F8804602E050
:101470004FF0020800BF00BFB8F1000F0AD100F022
:1014800077FB10B94FF0030804E014480570012001
:10149000134908704046BDE8F08700004C0000206A
:1014A000C117000854000020DD1700085800002074
:1014B00019170008500000206D1600085C0000207D
:1014C00060000020E91B000864000020491D00089E
:1014D00068000020C11C00086C0000204D000020A6
:1014E0004E00002038B500254148007808B106209C
:1014F00038BD684600F02AFB012877D19DF800002E
:1015000030B1012805D0022818D003286DD16BE036
:101510006BE0384A38493948394B1B6898470546CB
:101520005DB93648007837490978884202D0334897
:10153000007810B9022000F023FB56E02E48006826
:10154000007831490870012030490870002417E004
:101550002F4810F8340000B914E02D4810F834007A
:101560002949097888420AD1294800EBC400214959
:1015700042682148006890472449087002E0641CD2
:10158000102CE5DB00BF1D48007858B31F480078D9
:10159000C8B10020174908801B48007840F080013E
:1015A000144802880088401C124B188012480068BA
:1015B000815416480278184601880088401C18801B
:1015C0000D480068425413480078012800D100BF3C
:1015D00008480288084801680A4800780E4B1B68D2
:1015E0009847054601E001E000BF00BF00207FE70B
:1015F0004E000020FE000020F8000020FC0000202B
:101600005C0000204C000020FD00002000010020B4
:10161000780000204D000020500000202DE9F04708
:1016200081460E4614461F464FF000083B460822EE
:101630002146304600F0BAFA012802D04FF00308E4
:101640000FE0B4F5964F01D9232503E06000064969
:10165000B1FBF0F5A8B200F0BFFA012801D04FF0BD
:1016600003084046BDE8F087A07F17002DE9F04150
:1016700004460D4616464FF0000800271248008821
:10168000FF2800DC04E09C2210A118A0FEF7BAFDA0
:101690000D480088042812DB0B4801881D4800F023
:1016A000EDF960B91B480078207007480088C01E1B
:1016B00030801848401C28604FF0010800E00527E2
:1016C0003846BDE8F08100004A0000202E2E5C5014
:1016D00061636B6167655C6D6F646275735C727486
:1016E000755C6D627274752E6300000075735263D1
:1016F00076427566666572506F73203C204D425F7E
:101700005345525F5044555F53495A455F4D4158C8
:1017100000000000240100202DE9F04105460E469E
:1017200017464FF0000821480078012838D1701E74
:101730001F49086001201F4908801D480068057086
:101740000846008838440880084601881848006820
:1017500000F094F9044617490888411C154B19807C
:1017600015490C54221219460888411C1980124947
:101770000A540120114908700D490968087800F0E1
:1017800021FA0B480068401C094908600948008894
:10179000401E084908800121002000F08BF901E07B
:1017A0004FF005084046BDE8F081000041000020F0
:1017B00044000020480000202401002040000020B8
:1017C00010B50020044908700021012000F072F9D2
:1017D00000F0A7F910BD00004100002010B5002165
:1017E000084600F067F900F087F910BD2DE9F047D1
:1017F00005460E46904699464FF0000A0FFA88F4C7
:1018000030B2012836DB06EB0800112832DC701EEE
:1018100007B2B9F1000F03D0B9F1010F29D115E0DA
:1018200011E0082C01DD082000E02046C2B2B9B268
:10183000134800F0E9FA05F8010BA4F1080004B21E
:1018400007F1080007B2002CEBDC12E00EE015F8FF
:10185000013B082C01DD082000E02046C2B2B9B2ED
:10186000074800F0E7FAA4F1080004B2002CEEDC0F
:1018700000BF01E04FF0010A5046BDE8F0870000CC
:101880003A0000202DE9F04705460C4616464FF079
:10189000000937B220B201281CDBA019112819DC7D
:1018A000601E1FFA80F812E0082F01DD082000E01A
:1018B0003846C2B241460A4800F0A6FA05F8010BC4
:1018C000A7F1080007B208F108001FFA80F8002FFE
:1018D000EADC01E04FF001094846BDE8F08700006E
:1018E0003C000020F0B504460D460020012D30DB01
:1018F000AE18092E2DDC184E3688A91B13B1012B0A
:1019000026D111E00DE0154E36F81160361204F8BC
:10191000016B124E16F8116004F8016B491C561E3B
:10192000B2B2002AEFDC13E010E014F8017B3E02B3
:101930000A4F27F8116014F8016B37F811703E4315
:10194000064F27F81160491C561EB2B2002AECDC83
:1019500000E00120F0BD0000380000202800002039
:1019600030B503460020012917DB8D18092D14DC42
:101970000B4D2D884C1B0DE00A4D35F814502D12DF
:1019800003F8015B074D15F8145003F8015B641C64
:10199000551EAAB2002AEFDC00E0012030BD000095
:1019A000260000201600002008B500204FF4E13387
:1019B000024601210090FFF725FDFFF77FFA01E0C5
:1019C000FFF790FDFCE7014621B1012904D007296A
:1019D00006D103E0002005E0022003E0062001E03C
:1019E000042000BF00BF704710B502480068804760
:1019F00010BD00006C00002010B502480068804750
:101A000010BD00006400002010B502480068804747
:101A100010BD0000680000203EB5044601210846C4
:101A2000FEF728FE4FF08040FEF792FFADF804402D
:101A300040F60F60ADF800000020ADF80600ADF8EC
:101A4000020069464FF08040FFF792F801218807B5
:101A5000FEF772FF00F001F83EBD08B51C208DF8BE
:101A6000000000208DF8010001208DF802008DF8A3
:101A700003006846FEF7BAFD08BD000070B50246D7
:101A80000C46FF25FF2309E012F8010B80EA030151
:101A90000648405C80EA05030548455C201EA4F129
:101AA0000106B4B2F0D143EA052070BDD41E00088F
:101AB000D41F000870B505460C4635B1012240F22E
:101AC00025510C48FFF75CF905E0002240F2255152
:101AD0000848FFF755F934B1012240F22661054864
:101AE000FFF74EF905E0002240F226610148FFF7BA
:101AF00047F970BD0038014010B501218807FEF795
:101B000018FF002201218807FFF727F800214FF076
:101B10008040FFF72BF800214FF08040FEF70CFFCC
:101B200010BD10B501218807FEF703FF0122114601
:101B30009007FFF712F800214FF08040FFF716F8EA
:101B400001218807FEF7F8FE10BD000001460020C5
:101B5000054A127832B1054A12780A700022024B07
:101B60001A700120704700001500002014000020AA
:101B70000020024908700120704700001500002075
:101B800001460120024A107002480170012070478E
:101B9000150000201400002010B504460248FFF78D
:101BA00081F92070012010BD003801402DE9F0417D
:101BB00005460C4616461F462046FFF775F80120DD
:101BC000BDE8F08110B5044621460248FFF76FF9E1
:101BD000012010BD0038014010B504462046FFF733
:101BE0001BFF012010BD000038B5002421480078FB
:101BF00000B904E0EC2220A127A0FEF703FB684611
:101C0000FFF7CAFF2B48007830B101280AD002281C
:101C100019D003282BD102E0FFF783FF27E0FFF75D
:101C200080FF24E00020244908809DF800200888D7
:101C3000411C214B198021490A5402201D4908707A
:101C4000FFF76FFF13E01C480088FF2809DC9DF8B0
:101C5000002019490888411C174B198017490A545C
:101C600002E0032013490870FFF75BFF00BF00BFCD
:101C7000204638BD400000202E2E5C5061636B6111
:101C800067655C6D6F646275735C7274755C6D62C0
:101C90007274752E6300000065536E645374617432
:101CA00065203D3D2053544154455F54585F49449D
:101CB0004C450000410000204A0000202401002083
:101CC00010B500241648007820B1022807D0032858
:101CD0000BD109E00020FFF753FF044618E0012074
:101CE000FFF74EFF044613E012E00D48007838B1CC
:101CF0000B480078022803D009480078032800D157
:101D000005E04FF4B07207A10E48FEF77BFA00BF62
:101D100000BFFFF7F1FE012001490870204610BD09
:101D2000410000202E2E5C5061636B6167655C6D25
:101D30006F646275735C7274755C6D627274752E1B
:101D400063000000D420000810B500241B48007870
:101D5000012800D105E040F2271219A120A0FEF7CA
:101D600051FA2648007810B1012824D104E000215E
:101D70000120FFF79FFE1EE02148008878B121492D
:101D800009680878FFF71EFF1E480068401C1D49BF
:101D900008601B480088401E194908800AE003209B
:101DA000FFF7EEFE044600210120FFF783FE00202E
:101DB0001249087000BF00BF204610BD410000203E
:101DC0002E2E5C5061636B6167655C6D6F6462753C
:101DD000735C7274755C6D627274752E63000000C2
:101DE000655263765374617465203D3D20535441C0
:101DF00054455F52585F49444C4500004000002064
:101E00004800002044000020F0B503460C4615466B
:101E1000E208A4EBC20087B20120A840401E86B2AF
:101E2000995C501C185C41EA002139413140C8B22C
:101E3000F0BD00002DE9FF5F05460E469046DDF837
:101E40000CB0B8F1080F00DC04E0372213A11DA08C
:101E5000FEF7D8F9F408A6EBC4001FFA80FA0BFAD3
:101E60000AF01FFA80FB012000FA08F0401E1FFA5A
:101E700080F9A6EBC40009FA00F01FFA80F92F5D83
:101E8000601C285C47EA002727EA090040EA0B07A4
:101E90002F553912601C2954BDE8FF9F2E2E5C502F
:101EA00061636B6167655C6D6F646275735C6675B9
:101EB0006E6374696F6E735C6D627574696C732E9A
:101EC0006300000075634E42697473203C3D203806
:101ED0000000000000C1814001C0804101C080417C
:101EE00000C1814001C0804100C1814000C18140EA
:101EF00001C0804101C0804100C1814000C18140DA
:101F000001C0804100C1814001C0804101C08041C9
:101F100000C1814001C0804100C1814000C18140B9
:101F200001C0804100C1814001C0804101C08041A9
:101F300000C1814000C1814001C0804101C0804199
:101F400000C1814001C0804100C1814000C1814089
:101F500001C0804101C0804100C1814000C1814079
:101F600001C0804100C1814001C0804101C0804169
:101F700000C1814000C1814001C0804101C0804159
:101F800000C1814001C0804100C1814000C1814049
:101F900001C0804100C1814001C0804101C0804139
:101FA00000C1814001C0804100C1814000C1814029
:101FB00001C0804101C0804100C1814000C1814019
:101FC00001C0804100C1814001C0804101C0804109
:101FD00000C1814000C0C101C30302C2C60607C7D9
:101FE00005C5C404CC0C0DCD0FCFCE0E0ACACB0B49
:101FF000C90908C8D81819D91BDBDA1A1EDEDF1F79
:10200000DD1D1CDC14D4D515D71716D6D21213D368
:1020100011D1D010F03031F133F3F23236F6F73718
:10202000F53534F43CFCFD3DFF3F3EFEFA3A3BFB08
:1020300039F9F83828E8E929EB2B2AEAEE2E2FEFB8
:102040002DEDEC2CE42425E527E7E62622E2E32328
:10205000E12120E0A06061A163A3A26266A6A76758
:10206000A56564A46CACAD6DAF6F6EAEAA6A6BABC8
:1020700069A9A86878B8B979BB7B7ABABE7E7FBFF8
:102080007DBDBC7CB47475B577B7B67672B2B373E8
:10209000B17170B050909151935352929656579798
:1020A000559594549C5C5D9D5F9F9E5E5A9A9B5B88
:1020B00099595898884849894B8B8A4A4E8E8F4F38
:1020C0008D4D4C8C448485458747468682424383A8
:1020D0004181804028206552637653746174652085
:1020E0003D3D2053544154455F52585F494E495439
:1020F0002029207C7C2028206552637653746174EB
:1021000065203D3D2053544154455F52585F524332
:10211000562029207C7C20282065526376537461E8
:102120007465203D3D2053544154455F52585F45EE
:1021300052524F5220290000582100080000002070
:10214000040100006C0100085C220008040100206A
:102150008407000088010008000000000102030459
:102160000102030406070809020406080000001023
:1021700001100210031004100510061007100100D2
:102180007B148E3F7B140E40B81E55407B148E404E
:102190000100010201020000000000000000000038
:1021A000000000000000020000000000000000002D
:1021B000000000000000000000000000000000001F
:1021C000000000000000000000000000000000000F
:1021D000110000002D12000804000000CB100008C0
:1021E000030000003F1000081000000097130008D3
:1021F00006000000C5120008170000005711000873
:1022000001000000E50E000805000000551200085E
:102210000F0000000713000802000000930F0008E1
:1022200000000000000000000000000000000000AE
:10223000000000000000000000000000000000009E
:10224000000000000000000000000000000000008E
:0C22500000000000000000000000000082
:0400000508000131BD
:00000001FF
